:100000000C942A000C9434000C9434000C943400AA
:100010000C9434000C9434000C9434000C94340090
:100020000C9434000C9434000C9434000C94340080
:100030000C9434000C9434000C9434000C94340070
:100040000C9434000C9434000C9434000C94340060
:100050000C94340011241FBECFE5D4E0DEBFCDBF29
:100060000E9460000C9496000C94000081EC8DBD01
:100070008BEA8CBD1FBC81E08EBD08B602FEFDCFB1
:100080001EBC84E088BF08958FEF8DBD8BEA8CBDC8
:100090001FBC81E08EBD08B602FEFDCF1EBC84E011
:1000A00088BF089584EA8DBD84E98CBD1FBC81E0C2
:1000B0008EBD08B602FEFDCF1EBC84E088BF089549
:1000C0001F93CF93DF938FEF87BB88B390E189278E
:1000D00088BB0E94360010E1C4E1D1E088B38127DB
:1000E00088BB0E94440080ED97E0FE013197F1F754
:1000F0000197D9F788B3812788BB0E945200EECFC1
:1001000088EA82BF81E083BF08B600FEFDCF13BE40
:1001100081E088BF08958FEB82BF84E083BF08B67B
:1001200000FEFDCF13BE81E088BF0895F894FFCF95
:00000001FF
